:10070000120100020000004025093412000001021D
:1007100000010A060002000000040100090229008D
:1007200001010380280904000002030000000921E0
:10073000100100012236000705810340000507056E
:1007400001034000050009072900010103A0000979
:1007500004000002030000000921100100012236FC
:100760000007058103400001070501034000010067
:1007700006A0FF0901A1010902A10006A1FF0903CA
:1007800009041580257F350045FF75089600048112
:1007900002090509061580257F350045FF75089675
:1007A00000049102C0C0040309041003430059006F
:1007B00050005200450053005300300345005A00DA
:1007C0002D00550053004200200046005800320022
:1007D000200048004900440020005500530042001A
:0C07E00048004900440049004F000000A0
:0A06F40000010202030304040505DF
:10038000E4F513F512F511F510C203C200C202C262
:10039000011208B87E077F008E238F24752B077506
:1003A0002C1275210775221C752907752A46752D93
:1003B00007752EA6EE54E070030204C6751400758E
:1003C00015808E168F17C374EA9FFF74079ECF2483
:1003D00002CF3400FEE48F0F8E0EF50DF50CF50BF9
:1003E000F50AF509F508AF0FAE0EAD0DAC0CAB0B71
:1003F000AA0AA909A808C3120AA25026E515250BC6
:10040000F582E514350AF58374CDF0E50B2401F58A
:100410000BE4350AF50AE43509F509E43508F50871
:1004200080C4E4F50BF50AF509F508AF0FAE0EAD83
:100430000DAC0CAB0BAA0AA909A808C3120AA2505A
:1004400033E517250BF582E516350AF583E0FFE560
:1004500015250BF582E514350AF583EFF0E50B243D
:1004600001F50BE4350AF50AE43509F509E4350828
:10047000F50880B785142385152474002480FF7443
:100480000734FFFEC3E52C9FF52CE52B9EF52BC30F
:10049000E5269FF526E5259EF525C3E5289FF52849
:1004A000E5279EF527C3E5229FF522E5219EF5214C
:1004B000C3E52A9FF52AE5299EF529C3E52E9FF578
:1004C0002EE52D9EF52DD2E843D82090E668E04435
:1004D00009F090E65CE0443DF0D2AF90E680E02089
:1004E000E105D20412098C90E680E054F7F0538EB7
:1004F000F8C203300105120080C201300329120640
:10050000FE5024C203120A0F20001690E682E0304B
:10051000E704E020E1EF90E682E030E604E020E04E
:0C052000E41209BB1207FE12052C80C774
:1000800090E6B9E070030201F614700302027324D3
:10009000FE700302030D24FB70030201F0147003D1
:1000A0000201EA1470030201DE1470030201E42469
:1000B00005600302036C120AD4400302037890E641
:1000C000BBE024DF700302015314700302016224B9
:1000D00021B4070040030201DB9000E775F003A4A0
:1000E000C58325F0C583730200FC020110020124C0
:1000F0000201DB0201DB02010602011AE52390E6A0
:10010000B3F0E5248055E52B90E6B3F0E52C804B69
:10011000E52590E6B3F0E5268041E52790E6B3F0CB
:10012000E528803790E6BAE01460111460182402C4
:10013000701E740790E6B3F074A6801F740790E6F3
:10014000B3F074AA8015740790E6B3F074BA800B0C
:10015000020371740790E6B3F0742E90E6B4F002D7
:1001600003787E077F70C374A69FF51974079EF508
:1001700018EEF59AEFF59BE5194518700302037820
:10018000C3E5199440E51894005006AE18AF1980E5
:10019000047E007F40E4FDFCC3ED9FEC9E50189070
:1001A000E67BE0FB74402DF582E434E7F583EBF069
:1001B0000DBD00010C80E1E490E68AF000000090A3
:1001C000E68BEFF0000000C3E5199FF519E5189ED6
:1001D000F51890E6A0E030E19E80F7020371120A64
:1001E00090020378120AC8020378120AC002037848
:1001F0001207EC020378120AD6400302037890E655
:10020000B8E0247F601514601924027063A200E432
:100210003325E0FFA202E4334F8041E490E740F051
:10022000803F90E6BCE0547EFF7E00E0D394807C6B
:100230000040047D0180027D00EC4EFEED4F24F471
:10024000F58274063EF583E493FF3395E0FEEF24D8
:10025000A1FFEE34E68F82F583E0540190E740F091
:10026000E4A3F090E68AF090E68B7402F002037843
:10027000020371120AD8400302037890E6B8E02422
:10028000FE60162402600302037890E6BAE0B4012F
:1002900005C20002037802037190E6BAE024806090
:1002A0005C14605E2481706390E6BCE0547EFF7E47
:1002B00000E0D394807C0040047D0180027D00EC4E
:1002C0004EFEED4F24F4F58274063EF583E493FF71
:1002D0003395E0FEEF24A1FFEE34E68F82F583E054
:1002E00054FEF090E6BCE05480131313541FFFE05B
:1002F000540F2F90E683F0E04420F0807B90E6A03E
:10030000800390E6A2E054FEF0806D8064120ADA69
:10031000506690E6B8E024FE60192402705A90E618
:10032000BAE0B40104D200804F90E6BAE064026003
:1003300047803E90E6BCE0547EFF7E00E0D3948090
:100340007C0040047D0180027D00EC4EFEED4F24D8
:10035000F4F58274063EF583E493FF3395E0FEEFF7
:1003600024A1FFEE34E68F82F58380081209E7505E
:0F0370000790E6A0E04401F090E6A0E04480F0A2
:01037F00225B
:03003300020AD0EE
:040AD00053D8EF32D6
:0C0AB3000135FF013600013A00013C0053
:1008B80090E600E054E74410F090E601E04440F090
:1008C80090E61074A0F090E611F000000090E61297
:1008D80074A2F000000090E61374A0F000000090ED
:1008E800E61474E2F000000090E61574E0F00000F1
:1008F8000090E6917480F0000000F000000090E69F
:1009080095F0000000F043AF01E490E68DF0D200CE
:0109180022BC
:10052C0090E6A2E090E6A1E030E1030205C2E536D8
:05053C00C3940F5045BF
:10054100E53675F040A42400F582741035F0AF82D1
:10055100F5198F1AE4F51874802518F582E434E74B
:10056100F583E0FF051AE51AAC197002051914F5B7
:10057100828C83EFF00518E518B440DB0536E49072
:03058100E68DF014
:08058400803CE536640F70367F
:10058C00751913751AC0F51874802518F582E434A2
:10059C00E7F583E0FF051AE51AAC1970020519148A
:1005AC00F5828C83EFF00518E518B440DB75361036
:0605BC00E4F53A753C0174
:0D05C200E53C6401705990E6A2E020E15292
:1005CF00E53A75F040A42400F582741035F0AF823F
:1005DF00F5198F1AE4F518051AE51AAE1970020508
:1005EF001914F5828E83E0FF74C02518F582E43468
:1005FF00E7F583EFF00518E518B440DB90E68F744C
:10060F0040F0053AE53AB41009E4F536F53C90E6CA
:02061F008DF05C
:0106210022B6
:0206FE00D32205
:0207FE00D32204
:020AD400D3222B
:080AC00090E6BAE0F53BD322F9
:1007EC0090E740E53BF0E490E68AF090E68B04F06D
:0207FC00D32206
:080AC80090E6BAE0F531D322FB
:100A900090E740E531F0E490E68AF090E68B04F0D0
:020AA000D3225F
:020AD600D32229
:020AD800D32227
:020ADA00D32225
:1009E70090E6B9E0242F600D04701990E604E0FF4B
:1009F700430780800890E604E0FF53077F0000006C
:070A0700EFF08002D322C3CF
:010A0E0022C5
:100A3400C0E0C083C082D2015391EF90E65D74019F
:080A4400F0D082D083D0E03233
:100A6400C0E0C083C0825391EF90E65D7404F0D07F
:060A740082D083D0E032C5
:100A7A00C0E0C083C0825391EF90E65D7402F0D06B
:060A8A0082D083D0E032AF
:10095600C0E0C083C082852925852A268526828512
:100966002583A37402F08521278522288528828580
:100976002783A37407F05391EF90E65D7410F0D0CF
:0609860082D083D0E032B4
:100A4C00C0E0C083C082D2035391EF90E65D74087E
:080A5C00F0D082D083D0E0321B
:10091900C0E0C083C08290E680E030E720852125D1
:10092900852226852682852583A37402F0852927B9
:10093900852A28852882852783A37407F05391EF98
:0D09490090E65D7420F0D082D083D0E032C3
:010ADC0032E7
:010ADD0032E6
:010ADE0032E5
:010ADF0032E4
:010AE00032E3
:010AE10032E2
:010AE20032E1
:010AE30032E0
:010AE40032DF
:010AE50032DE
:010AE60032DD
:010AE70032DC
:010AE80032DB
:010AE90032DA
:010AEA0032D9
:010AEB0032D8
:010AEC0032D7
:010AED0032D6
:010AEE0032D5
:010AEF0032D4
:010AF00032D3
:010AF10032D2
:010AF20032D1
:010AF30032D0
:010AF40032CF
:010AF50032CE
:010AF60032CD
:010AF70032CC
:010AF80032CB
:010AF90032CA
:010AFA0032C9
:010AFB0032C8
:010AFC0032C7
:010AFD0032C6
:010AFE0032C5
:010AFF0032C4
:1009BB0090E682E030E004E020E60B90E682E03047
:1009CB00E119E030E71590E680E04401F07F147EFA
:0C09DB00001206AE90E680E054FEF02210
:10098C0030040990E680E0440AF0800790E680E0AD
:10099C004408F07FDC7E051206AE90E65D74FFF035
:0F09AC0090E65FF05391EF90E680E054F7F02271
:100A0F0090E682E044C0F090E681F0438701000059
:040A1F0000000022B1
:1006AE008E188F1990E600E054187012E519240187
:1006BE00FFE43518C313F518EF13F519801590E6FE
:1006CE0000E05418FFBF100BE51925E0F519E518E9
:1006DE0033F518E5191519AE18700215184E600588
:0606EE00120A2380EE2237
:100A23007400F58690FDA57C05A3E582458370F9E6
:010A330022A0
:03004300020800B0
:03005300020800A0
:10080000020A3400020A7A00020A6400020A4C005A
:100810000209560002091900020ADC00020ADD0082
:10082000020ADE00020ADF00020AE000020AE1001A
:10083000020AE200020AE300020AE400020AE500FA
:10084000020AE600020ADD00020AE700020AE800E6
:10085000020AE900020AEA00020AEB00020AEC00BE
:10086000020AED00020ADD00020ADD00020ADD00D4
:10087000020AEE00020AEF00020AF000020AF1008A
:10088000020AF200020AF300020AF400020AF5006A
:10089000020AF600020AF700020AF800020AF9004A
:1008A000020AFA00020AFB00020AFC00020AFD002A
:0808B000020AFE00020AFF002B
:03000000020622D3
:0C062200787FE4F6D8FD75813C02066983
:100AA200EB9FF5F0EA9E42F0E99D42F0E89C45F0AA
:010AB2002221
:10062E00020380E493A3F8E493A34003F68001F25F
:10063E0008DFF48029E493A3F85407240CC8C333CD
:10064E00C4540F4420C8834004F456800146F6DF9C
:10065E00E4800B0102040810204080900AB3E47E6F
:10066E00019360BCA3FF543F30E509541FFEE49391
:10067E00A360010ECF54C025E060A840B8E493A358
:10068E00FAE493A3F8E493A3C8C582C8CAC583CA83
:10069E00F0A3C8C582C8CAC583CADFE9DEE780BE3B
:010ABF000036
:00000001FF
