:10070000120100020000004025093412000001021D
:1007100000010A060002000000040100090229008D
:1007200001010380280904000002030000000921E0
:1007300010010001223A000705810340000507056A
:1007400001034000050009072900010103A0000979
:100750000400000203000000092110010001223AF8
:100760000007058103400001070501034000010067
:1007700006A0FF0901A1010902A10006A1FF850150
:10078000090309041580257F350045FF750896FF8C
:100790000381028502090509061580257F3500457C
:1007A000FF750896FF039102C0C0040309041003FB
:1007B00043005900500052004500530053003003DD
:1007C00045005A002D00550053004200200046000D
:1007D0005800320020004800490044002000550025
:1007E0005300420048004900440049004F00000007
:0A0AC500000102020303040405050A
:10038000E4F513F512F511F510C203C200C202C262
:10039000011208B87E077F008E238F24752B077506
:1003A0002C1275210775221C752907752A46752D93
:1003B00007752EAAEE54E070030204C6751400758A
:1003C00015808E168F17C374EE9FFF74079ECF247F
:1003D00002CF3400FEE48F0F8E0EF50DF50CF50BF9
:1003E000F50AF509F508AF0FAE0EAD0DAC0CAB0B71
:1003F000AA0AA909A808C3120AB45026E515250BB4
:10040000F582E514350AF58374CDF0E50B2401F58A
:100410000BE4350AF50AE43509F509E43508F50871
:1004200080C4E4F50BF50AF509F508AF0FAE0EAD83
:100430000DAC0CAB0BAA0AA909A808C3120AB45048
:1004400033E517250BF582E516350AF583E0FFE560
:1004500015250BF582E514350AF583EFF0E50B243D
:1004600001F50BE4350AF50AE43509F509E4350828
:10047000F50880B785142385152474002480FF7443
:100480000734FFFEC3E52C9FF52CE52B9EF52BC30F
:10049000E5269FF526E5259EF525C3E5289FF52849
:1004A000E5279EF527C3E5229FF522E5219EF5214C
:1004B000C3E52A9FF52AE5299EF529C3E52E9FF578
:1004C0002EE52D9EF52DD2E843D82090E668E04435
:1004D00009F090E65CE0443DF0D2AF90E680E02089
:1004E000E105D20412098C90E680E054F7F0538EB7
:1004F000F8C203300105120080C201300329120640
:10050000FD5024C203120A0F20001690E682E0304C
:10051000E704E020E1EF90E682E030E604E020E04E
:0C052000E41209BB1207FD12052C80C775
:1000800090E6B9E070030201F614700302027324D3
:10009000FE700302030D24FB70030201F0147003D1
:1000A0000201EA1470030201DE1470030201E42469
:1000B00005600302036C120AE3400302037890E632
:1000C000BBE024DF700302015314700302016224B9
:1000D00021B4070040030201DB9000E775F003A4A0
:1000E000C58325F0C583730200FC020110020124C0
:1000F0000201DB0201DB02010602011AE52390E6A0
:10010000B3F0E5248055E52B90E6B3F0E52C804B69
:10011000E52590E6B3F0E5268041E52790E6B3F0CB
:10012000E528803790E6BAE01460111460182402C4
:10013000701E740790E6B3F074AA801F740790E6EF
:10014000B3F074AE8015740790E6B3F074BE800B04
:10015000020371740790E6B3F0742E90E6B4F002D7
:1001600003787E077F70C374AA9FF51974079EF504
:1001700018EEF59AEFF59BE5194518700302037820
:10018000C3E5199440E51894005006AE18AF1980E5
:10019000047E007F40E4FDFCC3ED9FEC9E50189070
:1001A000E67BE0FB74402DF582E434E7F583EBF069
:1001B0000DBD00010C80E1E490E68AF000000090A3
:1001C000E68BEFF0000000C3E5199FF519E5189ED6
:1001D000F51890E6A0E030E19E80F7020371120A64
:1001E000A2020378120AD7020378120ACF02037818
:1001F000120A90020378120AE5400302037890E69F
:10020000B8E0247F601514601924027063A200E432
:100210003325E0FFA202E4334F8041E490E740F051
:10022000803F90E6BCE0547EFF7E00E0D394807C6B
:100230000040047D0180027D00EC4EFEED4F24C5A0
:10024000F582740A3EF583E493FF3395E0FEEF24D4
:10025000A1FFEE34E68F82F583E0540190E740F091
:10026000E4A3F090E68AF090E68B7402F002037843
:10027000020371120AE7400302037890E6B8E02413
:10028000FE60162402600302037890E6BAE0B4012F
:1002900005C20002037802037190E6BAE024806090
:1002A0005C14605E2481706390E6BCE0547EFF7E47
:1002B00000E0D394807C0040047D0180027D00EC4E
:1002C0004EFEED4F24C5F582740A3EF583E493FF9C
:1002D0003395E0FEEF24A1FFEE34E68F82F583E054
:1002E00054FEF090E6BCE05480131313541FFFE05B
:1002F000540F2F90E683F0E04420F0807B90E6A03E
:10030000800390E6A2E054FEF0806D8064120AE95A
:10031000506690E6B8E024FE60192402705A90E618
:10032000BAE0B40104D200804F90E6BAE064026003
:1003300047803E90E6BCE0547EFF7E00E0D3948090
:100340007C0040047D0180027D00EC4EFEED4F24D8
:10035000C5F582740A3EF583E493FF3395E0FEEF22
:1003600024A1FFEE34E68F82F58380081209E7505E
:0F0370000790E6A0E04401F090E6A0E04480F0A2
:01037F00225B
:03003300020ADFDF
:040ADF0053D8EF32C7
:0C07F0000135FF013600013A00013C0019
:1008B80090E600E054E74410F090E601E04440F090
:1008C80090E61074A0F090E611F000000090E61297
:1008D80074A2F000000090E61374A0F000000090ED
:1008E800E61474E2F000000090E61574E0F00000F1
:1008F8000090E6917480F0000000F000000090E69F
:1009080095F0000000F043AF01E490E68DF0D200CE
:0109180022BC
:10052C0090E6A2E090E6A1E030E1030205CBE536CF
:05053C00C3940F504EB6
:10054100E53675F040A42400F582741035F0AF82D1
:10055100F5198F1AE4F51874802518F582E434E74B
:10056100F583E0FF051AE51AAC197002051914F5B7
:10057100828C83EFF00518E518B440DBE536700591
:0C05810090100004F00536E490E68DF0C8
:08058D00803CE536640F703676
:10059500751913751AC0F51874802518F582E43499
:1005A500E7F583E0FF051AE51AAC19700205191481
:1005B500F5828C83EFF00518E518B440DB7536102D
:0605C500E4F53A753C016B
:0D05CB00E53C6401705990E6A2E020E15289
:1005D800E53A75F040A42400F582741035F0AF8236
:1005E800F5198F1AE4F518051AE51AAE19700205FF
:1005F8001914F5828E83E0FF74C02518F582E4345F
:10060800E7F583EFF00518E518B440DB90E68F7442
:1006180040F0053AE53AB41009E4F536F53C90E6C1
:020628008DF053
:01062A0022AD
:0206FD00D32206
:0207FD00D32205
:020AE300D3221C
:080ACF0090E6BAE0F53BD322EA
:100A900090E740E53BF0E490E68AF090E68B04F0C6
:020AA000D3225F
:080AD70090E6BAE0F531D322EC
:100AA20090E740E531F0E490E68AF090E68B04F0BE
:020AB200D3224D
:020AE500D3221A
:020AE700D32218
:020AE900D32216
:1009E70090E6B9E0242F600D04701990E604E0FF4B
:1009F700430780800890E604E0FF53077F0000006C
:070A0700EFF08002D322C3CF
:010A0E0022C5
:100A3400C0E0C083C082D2015391EF90E65D74019F
:080A4400F0D082D083D0E03233
:100A6400C0E0C083C0825391EF90E65D7404F0D07F
:060A740082D083D0E032C5
:100A7A00C0E0C083C0825391EF90E65D7402F0D06B
:060A8A0082D083D0E032AF
:10095600C0E0C083C082852925852A268526828512
:100966002583A37402F08521278522288528828580
:100976002783A37407F05391EF90E65D7410F0D0CF
:0609860082D083D0E032B4
:100A4C00C0E0C083C082D2035391EF90E65D74087E
:080A5C00F0D082D083D0E0321B
:10091900C0E0C083C08290E680E030E720852125D1
:10092900852226852682852583A37402F0852927B9
:10093900852A28852882852783A37407F05391EF98
:0D09490090E65D7420F0D082D083D0E032C3
:0106FF0032C8
:0107FF0032C7
:010AEB0032D8
:010AEC0032D7
:010AED0032D6
:010AEE0032D5
:010AEF0032D4
:010AF00032D3
:010AF10032D2
:010AF20032D1
:010AF30032D0
:010AF40032CF
:010AF50032CE
:010AF60032CD
:010AF70032CC
:010AF80032CB
:010AF90032CA
:010AFA0032C9
:010AFB0032C8
:010AFC0032C7
:010AFD0032C6
:010AFE0032C5
:010AFF0032C4
:010B000032C2
:010B010032C1
:010B020032C0
:010B030032BF
:010B040032BE
:010B050032BD
:010B060032BC
:010B070032BB
:010B080032BA
:010B090032B9
:010B0A0032B8
:010B0B0032B7
:010B0C0032B6
:1009BB0090E682E030E004E020E60B90E682E03047
:1009CB00E119E030E71590E680E04401F07F147EFA
:0C09DB00001206B790E680E054FEF02207
:10098C0030040990E680E0440AF0800790E680E0AD
:10099C004408F07FDC7E051206B790E65D74FFF02C
:0F09AC0090E65FF05391EF90E680E054F7F02271
:100A0F0090E682E044C0F090E681F0438701000059
:040A1F0000000022B1
:1006B7008E188F1990E600E054187012E51924017E
:1006C700FFE43518C313F518EF13F519801590E6F5
:1006D70000E05418FFBF100BE51925E0F519E518E0
:1006E70033F518E5191519AE18700215184E60057F
:0606F700120A2380EE222E
:100A23007400F58690FDA57C05A3E582458370F9E6
:010A330022A0
:03004300020800B0
:03005300020800A0
:10080000020A3400020A7A00020A6400020A4C005A
:1008100002095600020919000206FF000207FF0044
:10082000020AEB00020AEC00020AED00020AEE00E6
:10083000020AEF00020AF000020AF100020AF200C6
:10084000020AF3000207FF00020AF400020AF500A0
:10085000020AF600020AF700020AF800020AF9008A
:10086000020AFA000207FF000207FF000207FF006A
:10087000020AFB00020AFC00020AFD00020AFE0056
:10088000020AFF00020B0000020B0100020B020033
:10089000020B0300020B0400020B0500020B060012
:1008A000020B0700020B0800020B0900020B0A00F2
:0808B000020B0B00020B0C000F
:0300000002062BCA
:0C062B00787FE4F6D8FD75813C02067271
:100AB400EB9FF5F0EA9E42F0E99D42F0E89C45F098
:010AC400220F
:10063700020380E493A3F8E493A34003F68001F256
:1006470008DFF48029E493A3F85407240CC8C333C4
:10065700C4540F4420C8834004F456800146F6DF93
:10066700E4800B01020408102040809007F0E47E2C
:10067700019360BCA3FF543F30E509541FFEE49388
:10068700A360010ECF54C025E060A840B8E493A34F
:10069700FAE493A3F8E493A3C8C582C8CAC583CA7A
:1006A700F0A3C8C582C8CAC583CADFE9DEE780BE32
:0107FC0000FC
:00000001FF
